:020000021000EC
:100000000040082091010100FD000100E100010015
:100010000D0101001D0101002D0101000000000083
:10002000000000000000000000000000A9690100BD
:100030003D01010000000000296A01005D0101008E
:10004000596F0100596F0100596F0100596F01008C
:10005000596F0100596F0100596F0100596F01007C
:10006000596F0100596F0100596F0100596F01006C
:10007000596F0100596F0100596F0100596F01005C
:10008000596F0100596F0100596F0100596F01004C
:10009000596F0100596F0100596F0100596F01003C
:1000A000596F0100596F0100596F0100596F01002C
:1000B000596F0100596F0100596F0100596F01001C
:1000C000596F0100596F0100596F010014FE0100C2
:1000D00000C007208001000080C1072050030000FD
:1000E00004207146084200F00480EFF3098006F016
:1000F00051BFEFF3088006F04DBF704708B50248C6
:1001000000F0B6F9FEE700BFEDF7010008B50248C0
:1001100000F0AEF9FEE700BFF8F7010008B50248AD
:1001200000F0A6F9FEE700BF03F8010008B5024899
:1001300000F09EF9FEE700BF0EF8010008B5024886
:1001400000F096F9FEE700BF1BF8010008B5024871
:1001500000F08EF9FEE700BF29F8010008B506F0AF
:10016000FBFB06F07FFCBDE8084006F009BC10B5BB
:100170000023934203D21C585C500433F9E710BDAE
:1001800000238B4203D200221A500433F9E7704750
:1001900010B5154806F0CCFC134806F0CCFC134C07
:1001A000134B9C4207D294E803000C3454F8042CFF
:1001B000FFF7DDFFF4E70F4B9C4205D294E8030004
:1001C000FFF7DEFF0834F6E708F006FD06F0C0FC96
:1001D00000F062FA00F006FD4FF4164006F0FEFF54
:1001E000054800F045F9FEE700400820CC0001007A
:1001F000D8000100E00001003DF80100134A70B58D
:100200001168034611B94FF0805111601068104910
:10021000C518104E2944B14298BF0F480B4C96BFE9
:1002200019182560216011680C4A914203D90C49C4
:10023000064A002011603BB10A4A11680131116081
:10024000094A1060094A136070BD00BF84C10720CD
:10025000FF7FFFEFFE3F0710D0C40720FF3F0820BD
:10026000004008208CC1072080C1072088C10720DA
:1002700008F0D8BC08F0DEBC10B58AB00446684669
:1002800009F010F8204B214A2360089B2049A36005
:10029000079B636053B90B681E4883428ABF03F112
:1002A000604303F17043A3F5E82363606368B3F52B
:1002B000803F04D903F17043A3F5E8236360002372
:1002C000E3600B6813498B4205D8C2F1405202F536
:1002D0000C22D21A09E010498B4207D8C2F18042A1
:1002E00002F58012D21A002A00DDE260E3610B4BB6
:1002F00020461B68A3610A4B1B686361094B1B689E
:1003000023610AB010BD00BFD0040000D0C4072094
:1003100084C1072000800010FF3F082080C1072013
:1003200088C107208CC10720FEE70000014B186040
:10033000704700BF94C10720014B1860704700BF91
:1003400090C1072008B5024809F0F4F8FEE700BFA5
:1003500014E8010008B5024809F0ECF8FEE700BF18
:100360002EE801000020704701207047F8B5084BC7
:1003700015461A680E461F463AB10024AC4204DA0C
:1003800030573A6890470134F8E72846F8BD00BF77
:1003900094C10720F8B5094B0E46186815461F464C
:1003A00050B10024AC4205DA3A680020904730553D
:1003B0000134F7E725EAE570F8BD00BF90C10720DA
:1003C0007047002070470000074B1B689A68824204
:1003D00007D05A68824204D0DB681B1A5842584141
:1003E00070470120704700BF04C1072000207047FC
:1003F0000020704730B504468DB0002835D06846DF
:1004000004F098FE9DF80030002503F03F030393AD
:100410009DF8013003A803F03F0304939DF80230D8
:100420000B9503F01F0305939DF8043003F01F03A1
:1004300006939DF8053003F00F03013B0793BDF8C9
:100440000630C3F30B03A3F26C7308939DF80330DB
:1004500003F007030993BDF80830C3F30B03013B16
:100460000A9308F00BFD84E8210000200DB030BD98
:1004700010B5044606F0BCFA013C14F8010F18B19F
:1004800040B206F0E7FEF8E7BDE8104006F0C2BA59
:100490000FB470B5C2B046AC54F8046B4FF480751D
:1004A0002A4602A8002108F00EFC234629463246BF
:1004B00002A801940BF0FEFD044602A8FFF7D8FF46
:1004C000204642B0BDE8704004B0704770B50F4C94
:1004D0000F4D266816F0010615D1204607F010F9D9
:1004E00088B14FF40E70FFF7C3FE302280F835223A
:1004F0003A2280F8346280F8362280F83762286029
:10050000204607F00BF9286870BD00BFB4C1072072
:100510009CC1072038B5064C236833B91C20FFF76F
:10052000A7FE054604F022FD2560206838BD00BF07
:10053000A8C10720014808F0FDBF00BF48E801003E
:1005400038B504460D4606F0EFFD074BB0FBF3F05F
:100550000223B0FBF3F2954201D3236138BDB3F51A
:10056000807FFAD00233F4E740420F007FB500F2FB
:1005700035260D460122314603F000FBC4B24CBBC8
:1005800004A941F8044D304602AA03F068FEF8B908
:10059000029A0399937892695943023A5A4352084E
:1005A000B2F5004F1048114B2CBF4FF4806401246A
:1005B0004FEA510128BF0346B1FBF4F18DE80A0070
:1005C0000B482946B2FBF4F208F03CFF012008E09A
:1005D000084B00E0084B0948294662B208F032FF98
:1005E000002004B070BD00BF86E8010083E8010070
:1005F00090E8010089E801008DE80100BEE80100F3
:1006000038B5074D2B684BB90820FFF731FE04467B
:10061000FFF780FF4023206023712C60286838BDDD
:10062000C0C1072038B5054C256825B90120FFF762
:100630001FFE05702060206838BD00BFBCC10720C8
:1006400038B5084D2B685BB90C20FFF711FE044646
:10065000FFF760FF9023237100232060A3602C60CC
:10066000286838BDA0C1072010B5044C23681BB909
:100670000120FFF7FDFD2060206810BDA4C1072008
:1006800010B5044C23681BB90120FFF7F1FD206071
:10069000206810BDB8C10720AE49AF4A4023F0B56D
:1006A0008B614FF0007393614FF480338B61AB4BE0
:1006B000ADF5057D1868072520F0F0001860186872
:1006C000022440F050001860186820F44050186070
:1006D000086840F040000860186820F47C2018602A
:1006E000186840F428201860186820F4700018601A
:1006F000186840F420001860186820F04040186026
:10070000186840F000401860586820F03C005860BD
:10071000586840F028005860586820F0030058607E
:10072000086840F480300860586820F440505860F1
:10073000086820F480000860D96821F44031D9604D
:10074000116841F080711160596821F440215960AD
:10075000596841F480215960986881490140996045
:10076000116841F4897141F001011160996821F427
:1007700070119960996821F070419960116821F4B5
:1007800046411160D96821F03001D960D96841F043
:100790003001D960D96821F47011D960136843F031
:1007A00000731360136823F08063136004F030FA61
:1007B0000A20012106F0ECFA0A20012106F000FBD4
:1007C0006848012105604460FFF7BAFE04F040FE6E
:1007D0001520012106F0DCFA1520012106F0F0FABF
:1007E0006148012105604460FFF7AAFEFFF792FE11
:1007F000642104F085FB10B95C4808F09BFE06F00C
:1008000003FB01F02DFA10B9594808F093FE4FF49C
:10081000FA6004F0BCF9FFF78DFE06F085FC07F0E6
:1008200095FB544907F09EFC07F016FA02460B466A
:10083000514808F007FE06F085F9052804AC14D1EC
:10084000002363604D4B1B682360FFF773FE4C4B26
:100850004C48D96C1A6D5B6D009408F0F3FDFFF7FE
:1008600069FE41F2883004F092F9FFF72FFE464905
:10087000FFF77CFE054668BB444808F0E3FD02F044
:1008800051FAFFF723FE29462A4600F2352003F0ED
:100890004BFD3F4B3F4A002814BF1046184608F056
:1008A00049FEFFF713FE3849FFF760FE90B93A485A
:1008B00008F040FE02F0E2F90146384808F0C2FDB7
:1008C00002F0CCF9054602F0D9F905FB00F13448F5
:1008D00008F0B8FD334D344E2B6813F0010716D1E4
:1008E000284606F00DFF90B14FF40E70FFF7C0FCE4
:1008F000012280F83422312280F835223A2280F811
:10090000362280F837723060284606F007FF3068DC
:100910002649FFF72BFE264E12481821FFF710FE3E
:10092000FFF708FE002004F01BF833684BB90820DD
:10093000FFF79EFC0546FFF7EDFD382328602B717D
:100940003560306801F0FCF90546A8BB194808F08D
:10095000F1FD32E000C0092020C0092000C00240A3
:10096000F0FCFCFF000003400080084009E90100A2
:100970003AE90100002474495FE901004440024063
:100980000040024077E90100EFE90100F7E90100CA
:10099000F1E80100F6E8010034EA010053EA010041
:1009A00062EA0100B0C1072098C107207DEA01007A
:1009B000C8C1072085EA01000125FFF741FE01F0CB
:1009C00073FA064618B9724808F0B4FD3546FFF7C9
:1009D00017FE01F0F7F9064618B96E4808F0AAFDAF
:1009E00035466D4E33681BB90120FFF741FC30607E
:1009F000306801F0B7F9FFF737FE01F041FAFFF771
:100A000011FE01F01BFAFFF73BFE01F03EFAFFF783
:100A100009FE002101F014FA95B9FFF78BFDFFF7ED
:100A2000EFFD2D2101F0B6F9FFF7EAFD2D2101F0D0
:100A3000BDF9FFF7F7FD4FF0FF3101F001FA0CE0CF
:100A4000FFF7DEFD0546FFF7FBFD01F059FA07F061
:100A50009BFC41B2284601F0D2F900211022204629
:100A600008F031F94D4821460F22002301F05AFACF
:100A700080B9204607F0B5FFC5B2284600F0D0FA8D
:100A8000474A484B2946002808BF13464648434A70
:100A900008F0D8FCFFF7E8FD01F0F4F90546002066
:100AA0000AF010F8284408F04DFD4FF400720021C0
:100AB000204608F008F9204606F032FA21463B4865
:100AC00008F0C0FCFFF736FD80220021204608F028
:100AD000FAF8204602F0AEF894F90020531C05D035
:100AE0002146D2B2324808F0ADFC29E0FFF7C8FD3C
:100AF00001F0CEF909281DD12E4808F01BFD214632
:100B00002D4808F023FE21462C4808F09BFC2C4879
:100B100008F010FD00232B4803A9039308F016FEEC
:100B20009DF90C30592B03D1204602F063F807E001
:100B3000254803E0254808F0FDFC254808F0FAFCAC
:100B40004FF208031D684FF20C031E684FF21003AA
:100B50001C684FF2040319684FF470431A68AD0A19
:100B6000B60A1C4808F06EFC2A4631461A4808F0BE
:100B700069FC2146194808F065FCFFF7DBFC1848C2
:100B800008F0D8FCFFF7D6FC0DF5057DF0BD00BFE1
:100B9000A0EA0100BAEA0100C4C10720D3EA0100BB
:100BA00002E90100FCE80100D9EA01000DEB0100B7
:100BB00010EB01002CEB01004EEB010053EB0100A8
:100BC0006EEB0100B1EB0100B5EB0100CDEB0100D4
:100BD000FBEB01002DEC010059EC010086EC01005B
:100BE000A3EC010010B5134C23681BB90120FFF7DB
:100BF0003FFB206024680221204604F061FB40F6A0
:100C0000B83003F0C4FF2046032104F059FB40F63E
:100C1000B83003F0BCFF2046002104F051FB40F641
:100C2000B83003F0B4FF2046012104F049FB002056
:100C300010BD00BFCCC10720242310B503FB010366
:100C400098420BD0417839B1018C4FF6FF741144B2
:100C5000A14228BF214601842430F1E710BD0000E5
:100C600037B5002302A840F8043D0C4B04215B6813
:100C700098470B4B019A1C680546141B1A600948DB
:100C800022460421FFF7D8FF074802212246FFF73A
:100C9000D3FF281C18BF012003B030BDD0C10720EE
:100CA00098C20720E4C10720BCC2072008B50B4B3F
:100CB0001A78037893420A4B03D1198801311980BD
:100CC00002E0998801319980064B8270DB6820210F
:100CD0009847003018BF012008BD00BF05C007209D
:100CE0008CC20720D0C107200A4B02781B789A4299
:100CF000094B03D1DA880132DA8002E01A89013225
:100D00001A810379C3F3C202073262F3C503037188
:100D1000FFF7CCBF05C007208CC2072010B5002309
:100D2000064A990012F82340844201D1501810BDA0
:100D30000133042BF4D1002010BD00BFA9C207204D
:100D400070B1C3780133DBB2FF2BC37008D100232D
:100D5000044A1A44D17804334908102BD170F7D1D2
:100D6000704700BFA9C2072070B5242202FB010111
:100D7000034602468A4206D01046243212F8234C1B
:100D8000002CF7D112E0184600228B420ED01C79BD
:100D90001E8CC4F3C20446EA0444A2421D4624BF8A
:100DA00014460546243322462846EEE770BD00006F
:100DB00038B501310446CD00FFF752FF1B4B1A78BE
:100DC00023789A4204D102211948FFF7CDFF0CE0A5
:100DD00018480421FFF7C8FFE37833B990F82330AF
:100DE000042543F0800380F82330002380F820306E
:100DF00080F8213090F8233080F8225023F07F03D0
:100E000043EA152580F823502346024604F12001C9
:100E100053F8044B8B4242F8044BF9D1064A03794C
:100E2000127862F3C503037138BD00BF05C0072007
:100E3000BCC20720E4C1072004C0072010B5FFF79B
:100E40006DFF0446F8B9FFF769FF0446D8B90F4AA9
:100E5000D378D179994238BF0B46D17A34BF141D6B
:100E6000144699423CBF0B46094CD17B094A994232
:100E700038BF144620460422002107F024FF064B09
:100E8000DA7A0132DA72204610BD00BFA9C207200B
:100E9000B1C20720B5C207208CC20720F8B52427AD
:100EA00007FB021705460C46BC4200F0B38094F8DD
:100EB0002310CB092BD0BDB12B786278934203D19C
:100EC0006E78207886421CD0E87868B168789042C5
:100ED00008D122789A4205D1A379AA79D61A734209
:100EE000734100E0002363B994F82220238C01F0C1
:100EF0007F0142EA01218B42C0F28A802046FFF73F
:100F0000D5FE20460021242207F0DDFE80E0637834
:100F1000002B7DD0002D3CD02A799209032A1AD1CA
:100F20006A782078904202D128789842E9D0E67811
:100F3000A878864210D1934209D120782A7890422D
:100F400005D1AA79A079801A4242424100E00022EC
:100F5000002AD6D100E0E2B1A878E278904218D118
:100F60006A789A4209D120782A78904205D1A079EE
:100F7000AA79821A5042504100E0002048B12279FB
:100F8000002363F3C50284F8203084F821302271F5
:100F90003EE094F82200228C01F07F0140EA01211A
:100FA0008A4235DB2179002284F8202084F8212030
:100FB000C1F3C202D6B21EB12046FFF795FE27E06C
:100FC0008909032918D0144920780978884213D157
:100FD000E178994210D079B16379E270032262F32B
:100FE000071363712046FFF77FFE0C4A23791278BE
:100FF00062F3C503237100E001266078FFF78EFEDF
:1010000018B10021042207F05EFE002E7FF479AFB4
:10101000243449E7F8BD00BF05C0072004C00720FD
:10102000431EDBB2FD2B9DBF024B18700120002038
:10103000704700BF05C00720014B1878704700BFFC
:1010400005C007202DE9F7430446914698469DF8D0
:1010500028600D4600295BD0314B1F78B94259D02A
:10106000B8F10F0F56D8002856D02022002107F0E3
:101070002AFEFF2D237914BF09F00302002262F338
:101080008713032262F30203264A657012782770E1
:1010900062F3C503244A23711378A7700133DBB2CE
:1010A0001370A3710BAB01930EB9012713E0019BE1
:1010B000E0791A4652F8081B013E01925A68F6B2CE
:1010C0008718FFB2182F05D80830204407F0D7FD45
:1010D000E771E9E70027DFF854900123284689F8F3
:1010E0000030FFF71BFE0646FFF72AFE002389F8B3
:1010F0000030637926B968F307136371E67005E081
:10110000B27862F3071363717378E370384603E0D3
:10111000084601E00020FFE703B0BDE8F08300BF10
:1011200005C0072004C00720BBC20720B9C20720A2
:10113000154B012270B51A7004461E4608B90025E9
:101140001DE0FFF7B3FD05460028F8D0227992098B
:10115000D11C032A01F0030106D1E3782BB1627898
:10116000D31A18BF012300E00023012903F0010373
:1011700000D923B1617920460909FFF719FE002340
:101180003370284670BD00BFB9C2072082B0F0B5E9
:101190001746421ED2B28DB0FD2A04460D46139367
:1011A00001D900205AE0002BFBD0159B002BF8D072
:1011B000179B002BF5D0169B002BF2D0149B002B15
:1011C000EFD000214822284807F07DFD0021902221
:1011D000264807F078FD00211022254807F073FD0E
:1011E00000210C22234807F06EFD00210C2222482A
:1011F00007F069FD214B224E1C70224B34461D70B6
:1012000013AD0FCD0FC42B68002118221E48236098
:1012100007F059FD39461C48172208F00AFC002047
:10122000B368014698470028BBD09DF8603013B9D9
:10123000FFF716FD12E0154A0123019206220292E1
:10124000009304A8FF210022FFF7FCFE0028A8D08D
:1012500004A8FFF76DFF0028A3D0E9E70DB0BDE8B3
:10126000F04002B0704700BFBCC20720E4C10720B5
:10127000A9C207209DC207208CC2072005C00720F5
:10128000D0C107209CC2072074C20720B7EC010020
:1012900070B5182B8CB006460D4617D81C1C18BF0D
:1012A0000124002A14BF214684F0010171B101928A
:1012B0000293009404A831462A469DF84030FFF777
:1012C000C1FE18B104A8FFF733FF00E000200CB006
:1012D00070BD13B50446107852790B46120900927E
:1012E00003212246FFF7D4FF02B010BD00231846A9
:1012F000044A9A5C0AB10130C0B20433102BF7D112
:10130000704700BFA9C207202DE9F04188B06846A8
:101310000021202207F0D7FC9C4B1B7803F0FF0430
:10132000002B40F030819A4F68463B692021984756
:10133000002800F08280974D6B8801336B80FFF7A7
:10134000D5FF9DF80410A87201F00703032B04D009
:10135000914B1A7842F0010209E0904B1D789DF8FC
:101360000230AB4205D18C4B1A7842F002021A705F
:10137000DBE0C1F3C2019DF800E09DF80600CEB2AB
:10138000874A1319A25C724509D15A78824206D164
:101390009A780124961B18BF0126997018E003342F
:1013A0000C2CEDD17F4A136899707D49587001F17A
:1013B0000900834283F800E040F0C48011609DF88A
:1013C00000009DF80230834240F0BF800024264692
:1013D0009DF80200FFF732FD9DF8022002709DF893
:1013E0000220427000228270FFF7AAFC002C08BF86
:1013F000012616B39DF80030AB4200F095809DF8B1
:101400000160FF2E1BD13B6868462021984720B918
:10141000614B1A7842F004021A709DF8053003F00F
:101420000F02511C61F303038DF80530C3F303135E
:101430009A4202DA6846FFF739FC002475E0B542AB
:101440002AD164B99DF807304BB13B68684620212A
:10145000984720B9504B1A7842F004021A709DF850
:1014600004309B09012B12D19DF8073013B94E4867
:10147000182108E047480C216A46FFF72AFF002898
:1014800052D1002001466A46FFF723FF4CE09DF849
:101490000330002B48D1F4E7444B1B78002BCCD011
:1014A0009DF8054004F00F082709B845C5DA304615
:1014B000FFF734FC9DF8033008F1010868F30304DA
:1014C0009D428DF8054019D19DF804209209D51C44
:1014D00005F00305012D8CBF0025012508B14378D7
:1014E00000E00346032A05D19E4203D0003318BF13
:1014F000012300E000231D4330B90AE0A3B91D46D3
:1015000010B9684639460DE043788DF80330847889
:1015100002E08DF8030004466846FFF7C7FB1DB1E3
:1015200068462146FFF744FC6C46FFF799FB2046CE
:101530001F490422FFF7B2FC20461E490222FFF792
:10154000ADFC20E00333136039E785423FF43EAF42
:10155000FFF774FC0446FFF7F3FB23783BB19DF8DB
:101560000520A37802F00F029A423FF72FAF9DF8B3
:10157000003023709DF8023063709DF80530C3F38E
:101580000303A37022E708B0BDE8F081B9C20720C9
:10159000D0C107208CC20720BAC2072005C007208F
:1015A0009DC2072000C0072074C207209CC20720EC
:1015B000E4C10720BCC2072000231846094A1A4488
:1015C00052780AB10130C0B22433902BF6D1064BC9
:1015D0005A780AB10130C0B293F825300BB101300E
:1015E000C0B27047E4C10720BCC2072030B5464CEA
:1015F0004FF48035E561454CA060E068C506FCD439
:1016000042488068C0B2002B77D00B46002A68D0D1
:10161000072A3E4C91F9005036DDA56091F9015042
:10162000083AA56091F90250A56091F90350A560B0
:1016300091F90450A56091F90550A56091F9065003
:10164000A56001F1080591F90710A1602F498C6987
:101650006407FBD58C681C708C685C708C689C700F
:101660008968D9702949CC68E406FBD48C680833B2
:1016700003F8044C8C6803F8034C8C6803F8024CA4
:10168000896803F8011C1EE0032A1EDDA56091F99C
:101690000150043AA56091F90250A5600D1D91F921
:1016A0000310A1601949CC68E406FBD48C680433AC
:1016B00003F8044C8C6803F8034C8C6803F8024C64
:1016C000896803F8011C2946A0E70131A560013AA9
:1016D000E568ED06FCD40D4C0133A46803F8014C19
:1016E00094E7094B4FF480329A6140B230BDE5680F
:1016F000ED06FCD4054C0133A4689342F1DACD56D3
:10170000024CA560F3E700BF00C00920008008403C
:1017100007B5002302A9012201F8013D00F01F00D6
:101720001346FFF763FF9DF9070003B05DF804FB64
:1017300007B502AB03F8011D00F01F001946012296
:10174000002340F02000FFF751FF03B05DF804FBD9
:1017500008B51720FFF7DCFFC0F3001008BD072015
:101760007021FFF7E5BF03460A466FF05F00194698
:101770000023FFF73BBF08B50020FFF7C9FFBDE816
:10178000084020F0010149B20020FFF7D1BF00005E
:10179000024B4FF08072DA61704700BF20C0092011
:1017A00008B50020FFF7B4FF40F0010149B2002066
:1017B000FFF7BEFF024B4FF080729A6108BD00BF79
:1017C00020C0092007202021FFF7B2BF00216FF0C1
:1017D0001E000A460B46FFF709BF000037B50C464E
:1017E0000546FFF7F3FF21462846FFF7BCFF0D4BE8
:1017F0004FF080729A610022ADF806201C46BDF8B9
:10180000063001339BB2ADF8063033B94FF0807328
:10181000E361FFF7DBFF03B030BDFFF799FF00285E
:10182000EDD0F3E720C0092008B51720FFF770FFBF
:1018300000F0010080F0010008BD07204021FFF703
:1018400077BF08B503460A46612019460123FFF712
:10185000CDFEC0F3420008BD00216FF01D000A4616
:101860000B46FFF7C3BE70B5044600200D46164672
:10187000FFF74EFF14B100F0BF0002E040F040005F
:10188000C0B215B100F0DF0001E040F0200016B159
:1018900000F0EF0101E040F01001002049B2BDE886
:1018A0007040FFF745BF10B504460020FFF730FF3A
:1018B00014B900F0F7010DE0012C04D100F0FB0198
:1018C00041F0080106E0022C14BF40F0080140F08E
:1018D0000C01C9B2002049B2BDE81040FFF728BF93
:1018E00008B50020FFF714FFBDE8084040F00201F2
:1018F00049B20020FFF71CBF08B50020FFF708FF22
:10190000BDE8084020F0020149B20020FFF710BFF7
:1019100040F6DD13984206D840F66213B0F5166F14
:1019200038BF184600E01846A0F5166149B20520F8
:10193000FFF7FEBE10B504460620FFF7E9FEFA2CBD
:1019400000F0D70102D141F0200104E0B4F5FA6FB4
:1019500008BF41F00801062049B2BDE81040FFF77A
:10196000E7BE10B504460620FFF7D2FE032C34BFB5
:101970002146032100F0F90040EA410149B2062066
:10198000BDE81040FFF7D4BEF9284FF0FA0305D99F
:10199000B0F57A6F88BF4FF47A6000E01846B0FB6C
:1019A000F3F3013BDBB20F2928BF0F2141EA0311FA
:1019B000042049B2FFF7BCBE1130C0B2162806D8C9
:1019C000202928BF202140B249B2FFF7B1BE70479D
:1019D000032804D004280CBF0221032100E00121C8
:1019E0000320FFF7A5BE03460A4630201946002310
:1019F000FFF7FCBD03460A462A2019460023FFF7DD
:101A0000F5BD000073B504460E461546FFF724FFEA
:101A1000FFF7DCFE2B4B4FF08072DA61FFF76CFFB3
:101A200000210A460120FFF71EFFFFF798FE022063
:101A3000FFF739FF3046FFF76BFF2846FFF77AFFC5
:101A40000320FFF78EFF02200321FFF771FE012024
:101A50000021FFF76DFE4FF4FA700321FFF794FFAA
:101A600021460020FFF7A8FF12200021FFF760FEAB
:101A700013200021FFF75CFE14200021FFF758FE21
:101A800015200021FFF754FE00211620FFF750FE1D
:101A90000D4B18681B79009005208DF80430FFF776
:101AA00097FF68460521FFF79EFF68460521FFF76F
:101AB000A1FFFFF715FF4FF4FA6003F053F802B0EF
:101AC00070BD00BF20C00920BEEC010007B5094B66
:101AD000002102AA186842F8041D0B4604F096FA89
:101AE000019B1BB1044B4FF080521A6003B05DF8AC
:101AF00004FB00BF0CC3072004ED00E070B5174ED7
:101B0000326822B90320202104F0C1F93060144D5D
:101B10002A6822B90120202104F0B9F92860114C6B
:101B2000216821B90120032204F0B1F920602020AE
:101B300040F6C3114FF4FA62FFF764FFFFF730FE7F
:101B400016200121084A03F0C3F9306828B128683B
:101B500018B12068003018BF012070BD08C30720ED
:101B600004C307200CC30720CD1A010070B5037908
:101B700006469B09032B0CBF0D4B0E4B00221D6824
:101B800088B028463146134604F0A9F9044660B9E6
:101B9000224623466946284604F071FA2246234627
:101BA0002846314604F09BF90446204608B070BD33
:101BB00004C3072008C3072038B504460D46FFF7C5
:101BC0003BFA237883420AD0E37843B907F0E4FC78
:101BD000BD2300F0030000FB033002F0C3FFFFF75A
:101BE000D7FDFFF7C8FD2046A9B2FFF7F7FDFFF7C5
:101BF000E9FDFFF7D5FD04F021FE022806D1044BD4
:101C0000002118680A460B4604F000FA012038BD8E
:101C10000CC3072038B504460D46FFF705FE48B152
:101C2000A9B22046FFF70DFEFFF7FEFD08B9FFF74A
:101C300004FE012038BD042938B5054603D1041C33
:101C400018BF012400E0002405F000F92CB14FF486
:101C50007A72002306F0DEFB2860204638BD0000C3
:101C600000B50C4B8DB009930B4B0C4A0B930C4BEE
:101C70000A930CAB43F8102D002204920FCB8DE891
:101C80000F00084B0121084A6A20FFF77FFA0DB0C8
:101C90005DF804FBFD1A0100151C0100371C010052
:101CA000B91B01006D1B0100C3EC010008B504F075
:101CB000C5FD0F4B02285B6913D15A020DD5FFF702
:101CC0007BFC0C4B00284FF0000118680CBF4FF054
:101CD000FF3201220B4604F0D2F9BDE80840FFF7BD
:101CE00013BB5B02F9D5FFF767FC0028F5D108BDEF
:101CF00000C009200CC3072030B504464DB253B2D2
:101D000094F904102A460068BDE8304003F098BDFD
:101D10001FB5002204AB90F9044023F8042D4AB209
:101D2000022100910068214603F075FD9DF90C0029
:101D30009DF80D3080B243EA002080B204B010BD9F
:101D400010B52A2104461922FFF7D6FF206894F91E
:101D500004100D2203F063FDB0F12A0358425841EC
:101D600010BD000008B50220012105F011F8084B54
:101D700001209A6A22F007029A629A6A42F00602E9
:101D80009A6203F51033DA6842F03002DA6008BD77
:101D90000080004008B5044A01F07F034171D25C25
:101DA0000321FFF7A9FF08BDC8EC010008B5044AEC
:101DB00001F07F038171D25C0221FFF79DFF08BD16
:101DC000C8EC010038B5044694F90410006803F02B
:101DD00042FD054688B1204606210022FFF78CFF10
:101DE000204607210022FFF787FF20462E21FFF71C
:101DF000D1FF20462E21FFF7D9FF284638BD6423A6
:101E000070B591FBF3F404FB13110A234CB294FB5D
:101E1000F3F603FB164303F1300149B20546FFF721
:101E2000C5FF092C02DC2846202103E006F1300121
:101E3000284649B2BDE87040FFF7ACBF01207047AB
:101E40000E4B01F00F0140F2131201709A610278FB
:101E5000D10744BF0122DA610278920744BF02220F
:101E6000DA610278510744BF1022DA610278120762
:101E700044BF4FF48072DA61704700BF20C0092070
:101E800001207047022002F0FDBE012070470000D3
:101E9000044B5B69C3F38130C3F3412343EA800001
:101EA000704700BF20C0092010B5012104468122DF
:101EB000FFF722FF206894F90410012203F0AFFC21
:101EC00010F0600F0CBF0020012010BD38B50021BC
:101ED0000446FFF71DFF812285B201212046FFF74E
:101EE0000BFF102328B290FBF3F006F033F84FF00D
:101EF000765106F083F8A16805F078FF38BD000040
:101F000008B5FFF7E3FF054906F078F8044906F045
:101F100029F94FF0844105F069FF08BD0000104128
:101F20000000A040F0B50446ADF50B7D0F46164607
:101F300021461D4601A800230122009301F05CFE0A
:101F4000044670B91DB101A8294602F0DBF801A8CA
:101F5000394632466B4601F0E1FE044601A802F024
:101F6000BFF820460DF50B7DF0BD00007F2816D987
:101F700031B1FF2812D80A4B803833F8100070476F
:101F8000074A8BB232F81120824203D001318029F6
:101F9000F6D10B4603F18000C0B2704700207047B5
:101FA00048ED01000023064A32F8132032B1904276
:101FB00001D00133F7E7034A32F81300704700BF3E
:101FC00048EE010028F0010010B501200C4603F096
:101FD000F7FF2060003018BF012010BD01207047BE
:101FE00010B5044604F02AFC02280AD100210B4651
:101FF00020464FF0FF3204F042F8431E5842584149
:1020000010BD012010BD10B5044604F017FC0228D5
:1020100007D1002120460A460B46BDE8104003F0D8
:102020005EBF10BD10B5044603F082FA24B1012C46
:1020300006D100F089F901E000F024FD044600E03B
:10204000042403F08DFA204610BD20B1012801D1EF
:1020500000F038BA04207047F8B504460F4616461B
:102060001D4603F065FA3CB1012C0CD138463146CF
:102070002A4600F02FFA04E0384631462A4600F09E
:102080004FFD044600E0042403F06AFA2046F8BD40
:10209000F8B504460F4616461D4603F049FA3CB112
:1020A000012C0CD1384631462A4600F061FA04E092
:1020B000384631462A4600F05BFD044600E0042421
:1020C00003F04EFA2046F8BD70B504460E4615469C
:1020D00003F02EFA34B1012C0AD13046294600F023
:1020E000A3FA03E03046294600F068FD044600E00C
:1020F000042403F035FA204670BD08B504F0A6FEAE
:102100004FF47A72002306F085F908BD10B5044635
:1021100005F00AF8074BB0FBF3F00223B0FBF3F233
:10212000944202D3044A136110BDB3F5807FF9D005
:102130000233F3E740420F0000000340044B986075
:10214000DA68D206FCD4024B986840B2704700BFF0
:102150000000034038B5FFF7D0FF00F5FA754FF0E7
:10216000FF30FFF7EBFF4FF0FF30FFF7E7FFC4B2A0
:10217000FF2C07D0FFF7C1FF2A460023994208BF72
:102180009042F0D3204638BD38B5064C4FF000756C
:10219000E561FFF7DFFF044BA5611A7842F0010209
:1021A0001A7038BD20C0092006C0072070B505464A
:1021B0000E46FFF7A2FF00F164044FF0FF30FFF777
:1021C000BDFFC0B2FF2809D1FFF797FF22460023C9
:1021D000994208BF9042F0D3002070BDFE28FBD189
:1021E000102E06D928464FF40071002203F03EF964
:1021F00019E02C464FF0FF30FFF7A0FF20704FF0A2
:10220000FF30FFF79BFF60704FF0FF30FFF796FF46
:10221000A0704FF0FF30FFF791FF043404F8010C79
:10222000AB19A342E6D14FF0FF30FFF787FF4FF025
:10223000FF30FFF783FF012070BD38B505460C461F
:10224000FFF788FFFF281DD160B2FFF777FFFD2C55
:102250001AD04FF400714FF0FF32284603F006F910
:102260004FF0FF30FFF76AFF4FF0FF30FFF766FFD8
:102270004FF0FF30FFF762FF00F01F00431F58428E
:10228000584138BD002038BD012038BD38B503069F
:1022900004460D4607D577200021FFF7F7FF0128F8
:1022A0003CD804F07F041E4B4FF000729A61DA6153
:1022B000FFF750FFFF282ED160B2FFF73FFF28162F
:1022C000FFF73CFF45F30740FFF738FF45F30720D2
:1022D000FFF734FF68B2FFF731FF402C04D0482CE1
:1022E0000CBF8720012000E0952040B2FFF726FFB9
:1022F0004C2C03D14FF0FF30FFF720FF0A244FF0A2
:10230000FF30FFF71BFF0028C3B206DA013C14F0D0
:10231000FF04F4D101E0FF2038BD184638BD00BFEE
:1023200020C00920064A074913784969DBB24901F0
:1023300054BF03F0FD0343F003031370704700BF65
:1023400006C0072020C009202DE9F347FFF7EAFF68
:10235000594B1A781E4612F0020F01D01878A7E0E8
:102360000120FFF7D3FE0A244FF0FF30013CFFF7B6
:10237000E5FE14F0FF04F7D1504D4FF00073EB6110
:1023800040202146FFF782FF0128A84602D04FF0E7
:10239000000978E0FFF7B1FE4FF4D57100F57A77C8
:1023A0004820FFF773FF012843D14FF0FF30FFF7BC
:1023B000C5FE0DF1040909F804000134042CF4D120
:1023C0009DF80630012BE2D19DF80730AA2BDED113
:1023D000FFF793FE3C460025A94208BFA04206D362
:1023E000FFF78BFEA94208BFA042D0D207E0E92048
:1023F0004FF08041FFF74AFF0028E9D1F0E77A204B
:102400000021FFF743FF0028C1D104464FF0FF3001
:10241000FFF794FE09F804000134042CF6D19DF86E
:10242000043013F0400F0CBF4FF004094FF00C09BB
:1024300029E0E9202146FFF729FF01288CBF4FF052
:1024400001094FF002098CBF4FF0410A4FF0E90A31
:10245000FFF753FE3C460025A94208BFA0420BD31C
:10246000FFF74BFEA94208BFA0420CD34FF4007106
:102470005020FFF70BFF06E050460021FFF706FF54
:102480000028E5D1ECE70E4B83F800904FF0007385
:10249000C8F81830B9F1000F07D03378182003F0CE
:1024A000FE033370FFF732FE01E0FFF76DFE307878
:1024B000C0B202B0BDE8F08706C0072020C00920E6
:1024C00010C3072008B5FFF72DFF014B187808BD92
:1024D00006C00720F8B5144605460E46FFF722FF52
:1024E000002C3BD01F4B1B78DB0739D41E4B4FF021
:1024F0000072DA611D4A1F46127812F0080F08BFF9
:102500007602012C0ED151203146FFF7BFFEF0B903
:1025100028464FF40071FFF749FED0F1010438BF9F
:10252000002414E052203146FFF7B0FE78B9284667
:102530004FF40071FFF73AFE28B1013C14F0FF049C
:1025400005F50075F3D14C200021FFF79FFE4FF0F9
:102550000073201CBB6118BF0120F8BD0420F8BD2A
:102560000320F8BD06C0072020C0092010C30720A3
:10257000F8B5144605460E46FFF7D4FE002C46D0AB
:10258000264B1A78D20744D41B785B0743D4244ADD
:102590004FF00073D361234B17461B7813F0080FDD
:1025A00008BF7602012C0DD158203146FFF76EFE90
:1025B00030BB2846FE21FFF740FED0F1010438BFB2
:1025C00000241DE013F0060F03D0D7202146FFF7AB
:1025D0005DFE59203146FFF759FE88B92846FC2197
:1025E000FFF72BFE28B1013C14F0FF0405F5007540
:1025F000F4D10020FD21FFF720FE002808BF0124B0
:102600004FF00073201CBB6118BF0120F8BD0420EF
:10261000F8BD0320F8BD0220F8BD00BF06C00720AA
:1026200020C0092010C307207FB505460C46FFF7E0
:1026300079FE052D18D12378012B00F00C810AD3E7
:10264000022B40F00681864B5B6983F08063C3F305
:1026500080636370FFE0824B586910F0806440F043
:10266000FA80FFF791FDF6E07E4B1B78DB0700F167
:10267000F4800E2D00F2E580DFE815F00F00190060
:1026800051005500E300E300E300E300E300E30052
:10269000AE00B200B400BE00CF00714B4FF000722C
:1026A000DA61FFF757FDFF3818BF0120CCE0492061
:1026B0000021FFF7EBFD054608B10120C4E06846A4
:1026C0001021FFF773FD0028F7D09DF800309DF82A
:1026D00008209B09012B9DF8093006D1013303EB3B
:1026E000022292B29202226044E09DF807109DF807
:1026F0000A00890001EB92129DF80610013201F0E8
:10270000030102EB81229DF8051003F0030301F0A1
:102710000F0101EBD01101EB4303073B27E04FF41E
:10272000007323808FE0504D2B7803F0040303F0F7
:10273000FF010BB3CD200021FFF7A8FD0028BCD17D
:102740004FF0FF30FFF7FAFC68461021FFF72EFD2F
:102750000028B2D030254FF0FF30013DFFF7EEFCEE
:1027600015F0FF05F7D19DF80A3010221B0902FA77
:1027700003F32360284667E04920FFF787FD0646FC
:1027800000289AD168461021FFF710FD002894D048
:1027900029789DF80A2001F0020101F0FF009DF860
:1027A0000B3069B19DF80D1002F03F02DB0903EB1D
:1027B00042038909013301398B403046236043E0ED
:1027C00003F003015B0903EBC103C2F3840201338D
:1027D00002FB0333236037E0234B1B78237032E086
:1027E000492000E04A200021FFF750FD00287FF437
:1027F00064AF204610211DE07A200021FFF746FD3E
:1028000000287FF45AAF05464FF0FF30FFF796FCE3
:1028100060550135042DF7D115E0CD200021FFF7DB
:1028200035FD00287FF449AF4FF0FF30FFF786FCFD
:1028300020464021FFF7BAFCD0F1010038BF00204C
:1028400002E0042000E00020054B4FF000729A6186
:1028500004E0042002E0002000E0032004B070BD8A
:1028600020C0092006C0072010C30720054B1B7895
:10287000253BDBB2032B9ABF034A52F8230000200A
:10288000704700BF14C3072010F20100F8B5194BC0
:1028900005461C880E46B4F5007F174602D108464F
:1028A00011460AE0B4F5807F09D108461146224658
:1028B000A84706F5807007F58071224617E0B4F549
:1028C000047F05D1510A304689024FF400720EE0B0
:1028D000B4F5847F0CD1170A08464FF48072790250
:1028E000A847791C06F5807049024FF48072A8470A
:1028F000F8BD00BF12C3072010B50346002968DDEC
:10290000072993F90040334A36DD946093F901407A
:102910000839946093F90240946093F903409460FD
:1029200093F90440946093F90540946093F906404C
:10293000946003F1080493F907309360254B9A697A
:102940005207FBD59A6802709A6842709A68827042
:102950009B68C3701F4BDA68D206FBD49A680830B4
:1029600000F8042C9A6800F8032C9A6800F8022CEE
:102970009B6800F8013C1EE003291EDD946093F97A
:1029800001400439946093F9024094601C1D93F94E
:10299000033093600F4BDA68D206FBD49A68043098
:1029A00000F8042C9A6800F8032C9A6800F8022CAE
:1029B0009B6800F8013C2346A0E70133946001398D
:1029C000D468E406FCD4034A0130926800F8012C74
:1029D00094E710BD0000034007B50B0C8DF8040010
:1029E0008DF805308DF807100B0A01A804218DF829
:1029F0000630FFF781FF03B05DF804FBF7B50F4C1D
:102A0000402517460322E5618DF804200A0C06468E
:102A10008DF805208DF807100A0A01A804218DF809
:102A20000620FFF769FF30463946002202F01EFDFE
:102A3000A561A561A56103B0F0BD00BF00C009207C
:102A40000E4B4022DA610E4B6FF028029A60DA6872
:102A5000D106FCD40A4B9B68094B4FF0FF329A60B9
:102A6000DA68D206FCD4064B98680306F4D5034B0B
:102A700040229A61C0B29A619A61704700C00920F1
:102A800000000340F7B5FFF7DBFF204E0023338043
:102A90001F4B204C40251A889B78E561074603218F
:102AA00001A8ADF804208DF80630FFF725FF9DF84A
:102AB00005209DF806301F2AA561A561A561344651
:102AC0001CD1A3F12502032A18D8134A252B137011
:102AD00007F0010006D100280CBF4FF484734FF4B7
:102AE000807305E000280CBF4FF404734FF40073AB
:102AF0002380FFF7BBFE094B400A18602088D0F105
:102B0000010038BF002003B0F0BD00BF12C3072092
:102B100008F2010000C0092014C3072018C30720D1
:102B2000114B2DE9F0411B6816468A18013A9A426A
:102B3000074615D84FEA4128FFF782FF3C4600259B
:102B4000C7EB0802B542224407DA21460748FFF7DF
:102B50009DFE04F500740135F2E70020BDE8F08128
:102B60000120BDE8F08100BF18C30720FD29010046
:102B7000104B2DE9F0411B6816468A18013A9A421B
:102B8000074613D84FEA412804460025C7EB080240
:102B9000B542224407DA21460748FFF777FE04F5DD
:102BA00000740135F2E70020BDE8F0810120BDE8A6
:102BB000F08100BF18C30720992C010010B50C4606
:102BC000072815D8DFE800F004070C1012121212C3
:102BD000FFF736FF0AE0FFF749FE400A206005E0F4
:102BE0004FF400730B8001E001230B60002010BD47
:102BF000042010BD70B590B003466A4600F1400550
:102C000018685968144603C40833AB422246F7D10A
:102C1000074D4024EC619B200021FFF7DDFE684654
:102C20002146FFF769FEAC61AC61AC6110B070BDCC
:102C300000C0092070B5084D4024064600217720C9
:102C4000EC61FFF7C9FE30462146FFF755FEAC6147
:102C5000AC61AC6170BD00BF00C00920064B10B56F
:102C60001C8834F01F0404D0FFF700FEB0FBF4F022
:102C700010BD204610BD00BF12C30720014B1888AD
:102C8000704700BF12C30720024B1878003018BFEE
:102C90000120704712C307202DE9F7434FF0FF339F
:102CA0000F46904601938146FFF7CAFEFFF7ECFFFF
:102CB0000646B0B1194C4025194BE5611B8803202D
:102CC000B3F5847F14BF4FF400714FF48071394322
:102CD000FFF782FE01A80421FFF70EFEA561A561A2
:102CE000A5610E4C402382203946E361FFF774FE54
:102CF00048464146012202F0B9FB3EB1019B02A8C1
:102D0000013340F8043D0421FFF7F6FD4023A361A1
:102D1000A361A36103B0BDE8F08300BF00C0092038
:102D200012C3072037B5074B074C186840250190A0
:102D30000421E56101A8FFF7DFFDA561A561A5619B
:102D400003B030BD0BF2010000C009201FB501A87F
:102D500002F0F0F99DF809209DF8083002F00F020A
:102D600003F01F03520542EA03429DF806309DF826
:102D7000050003F01F0342EAC32300F03F0043EACB
:102D800040109DF80430C3F344031843BDF80A30E3
:102D90005B0603F10843184305B05DF804FB10B56A
:102DA0000023D41A032C03D9CC58C4500433F8E7B9
:102DB00002F0030422F00302104400230A44A34259
:102DC00003D0D15CC1540133F9E710BD02449042F5
:102DD00002D000F8011BFAE77047002310B5044643
:102DE0001846C201E15C42EA500201330A440B2B4F
:102DF00002F0FF00F5D110BD036810B50446C3B161
:102E00001A46104612F8011B1F2902D93A29F8D197
:102E100001E0002010BD1A4612F8011B904208D1B3
:102E2000A1F13002012A04D848B2023330382360BD
:102E300010BD4FF0FF3010BDF8B504460079F8B171
:102E4000256B04F13407607839462A460123FFF7E1
:102E50001FF9A0B9636A2071EA1AE3699A4201D3A3
:102E60000020F8BDE678012EFAD9E36960781D44A8
:102E700039462A460123FFF70BF9013EF3E701200B
:102E8000F8BD0000F8B50446FFF7D6FF0546002D53
:102E900031D12378032B26D16679012E23D104F179
:102EA0003407384629464FF40072FFF78FFF4AF681
:102EB0005523A4F83232104B226A636303F1FF53A7
:102EC00003F500532033C4F8183263690132C4F8A3
:102ED0001C3223692263C4F82032607839463346B5
:102EE000FFF7D6F86571002160780A46FFF7ECF825
:102EF000003018BF0120F8BD52526141036B70B51C
:102F0000994205460E460DD0FFF796FF044658B984
:102F1000687805F1340132460123FFF79DF818B9AE
:102F20002E6302E0002400E00124204670BD000072
:102F3000002310B503714FF0FF3303630446FFF71E
:102F4000DDFFA0B9B4F832224AF655239A4210D1D7
:102F5000D4F86A3023F07F42074B9A420AD0D4F863
:102F6000860020F07F40C01A18BF012010BD03204A
:102F700010BD022010BD00BF464154002DE9FF41A5
:102F800000230360074608461546FFF735FF061E77
:102F9000C0F2EC807D4B53F82640002C00F0E88016
:102FA000E068FFF71DF8002800F0E4803C6023781B
:102FB0006BB16078FFF749F8C70708D4002D00F01F
:102FC000DB8010F0040F0CBF00200A20DBE0F0B221
:102FD000002323706070FFF725F8C60700F1CE804C
:102FE00015B1410700F1CC8020460021FFF7A0FF7A
:102FF00001281CD1221D002392F8F21109B1D2F848
:10300000F6114DF803100433102B02F11002F3D126
:1030100000265DF806502DB120462946FFF788FFAF
:1030200008B90BE002200436102EF2D100E0002592
:10303000032800F0A78008B10D20A4E0B4F83F30C9
:10304000B3F5007FF8D1B4F84A3003B9A36D94F812
:103050004460E361721E012AE670EDD894F84100E5
:10306000A0700028E8D0421E0242E5D1B4F8451015
:103070000A072181E0D1B4F8472002B9626DB4F8A3
:1030800042C0BCF1000FD7D006FB03F80CEB1117C0
:103090004744BA42D0D3D21BB2FBF0F2002ACBD0C5
:1030A00040F6F570824206D94FF6F576B2428CBFF3
:1030B0000326022600E00126023205EB0C002F4415
:1030C000032EA26125626062E76205D10029B3D1B7
:1030D000216E9200A1620FE00029ADD0022E4FEACE
:1030E000420118BF8918404418BF02F00102A062D3
:1030F0000CBF0A4602EB510202F2FF12B3EB522F51
:103100009AD34FF0FF3363612361032E4FF08003A6
:10311000637122D1B4F86430012B1ED12046691CA2
:10312000FFF7ECFEC8B9B4F832224AF655239A42AA
:10313000607112D1636B164A93420ED102F1FF52B5
:10314000D4F8183202F500522032934205D1D4F857
:103150001C326361D4F8203223610E4A2670138832
:10316000002001339BB21380E3800CE00B200AE0C7
:103170000C2008E00F2006E0284604E0032002E0CF
:103180000A2000E0012004B0BDE8F08120C3072040
:10319000525261411CC3072010B50446A8B1036810
:1031A0009BB11A788AB1D988828891420DD1D868AA
:1031B000FEF716FF58B123685878FEF746FF10F067
:1031C000010F0CBF0020032010BD092010BD0F20EF
:1031D00010BD50B1A1F10B03012B06D9092904D070
:1031E0000F2902D0C068FEF70EBF7047836902390D
:1031F000023B99423DBF8278C36A02FB0130002046
:1032000070470129F8B504460D464BD983699942A8
:1032100048D20378022B29D0032B34D0012B41D183
:1032200001EB5106416A01EB5621FFF767FE10B131
:103230004FF0FF30F8BD616AC6F30803013623443E
:10324000204601EB562193F83470FFF757FE002813
:10325000EED1C6F30806344494F83400EB0747EA8D
:1032600000204CBF0009C0F30B00F8BD416A01EB20
:103270001521FFF743FE0028DAD16D0005F4FF7534
:103280002C44A08EF8BD416A01EBD511FFF736FE44
:103290000028CDD1AD0005F4FE752C44606B20F004
:1032A0007040F8BD0120F8BDF8B584680546012CD2
:1032B0000E46E98001D10220F8BD03689A69944264
:1032C000F9D254B91A78032A01D19A6A22B91A8913
:1032D0009642F0D2986A15E014469F783F01BE42AC
:1032E000286821460CD3FFF78CFF431C044618D0F6
:1032F0000128E0D92B689B699842DCD2F61BEEE7E7
:10330000FFF774FFEC600028D5D02B6800EB161097
:1033100006F00F0603EB4613343328616B6100207F
:10332000F8BD0120F8BD0129F8B504460D46164642
:103330005ED9836999425BD20378022B37D0032B85
:1033400041D0012B50D101EB5107416A01EB5721CC
:10335000FFF7D4FD002848D1C7F3080315F0010595
:103360002344F2B206D093F8341001F00F0141EA81
:103370000212D2B2616A83F834200137012323712B
:10338000204601EB5721FFF7B9FD70BBC7F30807D3
:10339000274415B1C6F3071606E097F83430C6F394
:1033A000032623F00F031E4387F834601DE0416AB3
:1033B00001EB1521FFF7A2FDB8B96D0005F4FF750B
:1033C0002544AE8611E0416A01EBD511FFF796FD69
:1033D00058B9AD0005F4FE75303525446B6803F02F
:1033E00070431E436E6000E0022001232371F8BD8C
:1033F0000220F8BDF8B504460F4631B9066996B10A
:1034000083699E4228BF01260EE0FFF7FAFE0128DD
:103410003FD9451C02D14FF0FF30F8BDA369984257
:1034200038D33E4600E001263546A36901359D426A
:1034300004D3012E01D80020F8BD022520462946DC
:10344000FFF7DFFE30B1411CE5D0012821D0B542A5
:10345000EBD1F0E7204629466FF07042FFF763FF9B
:10346000A8B957B9636925615A1C0ED0013B636145
:10347000637943F00103637107E0204639462A4629
:10348000FFF751FF0028EDD001E02846F8BD0128E4
:10349000C1D00120F8BD2DE9F843C68804460136A5
:1034A000B3B20F4613B90420BDE8F8830369002BBB
:1034B000F9D016F00F0859D1C168013303610068D3
:1034C00019B903899E42EED250E08278013A12EA9D
:1034D00016124BD1FFF795FE0128054602D80220AF
:1034E000BDE8F883421C02D10120BDE8F8832068C2
:1034F00083699D4234D3002FD5D0E168FFF77AFF6E
:10350000054600283BD00128E9D0431CECD02068B8
:10351000FFF792FC07460028E6D120683946343090
:103520004FF40072FFF752FCD4F800902946484649
:10353000FFF75CFEC9F8300023689A7897420CD2F6
:1035400001221A712068FFF777FC0028CCD123688C
:1035500001371A6B01321A63EEE71A6BD71B1F6330
:10356000E56020682946FFF741FE20612368E68078
:1035700003EB4813343363610020BDE8F883072070
:10358000BDE8F8832DE9F74F4FF6FF734FF0FF08C2
:1035900004460384454620682169FFF7AFFC0746CF
:1035A00000287CD166693378002B73D0E52BF17A43
:1035B00064D001F03F02090702D50F2A5ED101E075
:1035C0000F2A46D1D4F81CB0BBF1000F5AD05A06CE
:1035D00006D503F0BF05E38896F80D80238401E04B
:1035E000AB424ED1737B43454BD137780D2327F047
:1035F0004007013F5F434FF001094FF0000A2A4B9B
:103600001AF80330F05AB9F1000F0FD0FEF7CAFCD8
:103610007F2F814635D87B1C3BF817000193FEF7BE
:10362000C1FC8145019B2CD11F4603E04FF6FF737F
:10363000984226D10AF1010ABAF10D0FDFD1337891
:103640005B0629D5B9F1000F26D03BF817301BB324
:1036500017E025B93046FFF7C0FB80451FD0A269AF
:10366000D37A13F0010309D1F15C0133D01810F8BB
:10367000010C884202D10B2BF6D110E04FF6FF73FC
:103680002384FF2520460021FFF705FF0746002879
:1036900081D004E0042702E0013DEDB2F2E73846B4
:1036A00003B0BDE8F08F00BFFAF201002DE9F74F3B
:1036B00091F9003006462F2B894601D05C2B01D1B1
:1036C00009F101090024B46099F800301F2B62D879
:1036D00030462146FFF7E8FD746114E101333AF802
:1036E00013102029FAD02E29F8D00BB144F003048E
:1036F000424632F8021D2E2901D0013DF9D14FF08A
:10370000000B4FF008085F465A1C3AF81330002BA4
:1037100040F08F80B3691A78E52A04BF05221A7039
:10372000B8F1080F04BFBF00FFB207F00C030C2B69
:1037300000F0CD8007F00302032A00F0C880A10743
:1037400009D407F00307012F08BF44F01004042B2D
:1037500008BF44F00804B3693046DC720021FFF76B
:10376000A3FD10B93046FFF70DFFB369DB7A0028DF
:1037700040F0B0805A0700F1C6807269D37ADB0648
:1037800040F1AF803168538B0978032904BF928AD6
:1037900043EA0243B3604F463B7809F101095BB24B
:1037A0002F2BF8D05C2BF6D0D6F81CA000256C1C73
:1037B0003B1913F9010C80B21F281DD92F281BD0EB
:1037C0005C2819D0812C00F09880C0B20121FEF74E
:1037D000CDFB002800F091807F2807D84B4A12F8D3
:1037E000013F1BB15BB28342F9D186E00AEB44038F
:1037F00023F8020C2546DAE71F2899468CBF0024DF
:1038000004240AEB4503002D77D033F8022D202A3B
:1038100001D02E2A01D1013DF5E700272AF81570C5
:10382000B06920210B22FFF7D1FA0AEB45083B468D
:1038300055E7202B03D02E2B05D1AA425FD044F0B0
:103840000304134660E7C34502D2AA4216D156E0EC
:10385000B8F10B0F04D144F003044FF00B0859E703
:10386000AA4203D044F003043FF654AFBF00FFB2B6
:103870002A464FF00B084FF0080BE2E77F2B0ED9DA
:10388000184600210192FEF771FB019A034618B118
:103890001F490B4413F8803C44F0020433B11D4827
:1038A00010F8011F31B149B29942F9D144F0030433
:1038B0005F2306E0A3F1410189B2192913D847F02B
:1038C0000207B16901F80B300BF1010BB9E744F0C5
:1038D000020434E7042816D113F0040F08BF0520B2
:1038E00011E005200FE0A3F1610189B21929E8D8A0
:1038F000203B47F001079BB2E3E7062003E0B8F165
:103900000B0FB3D1A7E703B0BDE8F08F35F201008C
:103910007AF201003EF20100F0B5856987B0C7690F
:103920000446294603A80C22FFF739FA9DF8173000
:10393000DB075FD50023EB720126E361284603A96C
:103940000B22FFF72CFA052E15D9B81E334630F896
:10395000022F8AB1102102F0010E0EEB430313F483
:10396000803F1CBF83F4883383F0210301394FEA81
:103970005202F0D1EBE73346072203F00F0000F1CB
:103980003001392988BF00F13701013A06A81044F7
:103990001B0900F8131CF0D106A97E20114401F880
:1039A000140C934209D0E95C202906D00133F8E7D2
:1039B0002021E9540133072B07D8072AF8D806A994
:1039C000114411F8141C0132F3E720460021FFF7DF
:1039D0006BFC40B92046FFF7D5FD20B90136642EB7
:1039E000ACD1072099E0042840F097809DF817306B
:1039F000EB72E7619DF817309B070AD5002337F873
:103A000013200AB10133FAE719330D22B3FBF2F6A2
:103A100000E0012620460021FFF746FCA8B9054634
:103A200020682169FFF76AFA78B963691B78E52B8A
:103A300000D01BB90135B54201D10AE00546204648
:103A40000121FFF728FD0028EAD0042808BF07203D
:103A500063E0013D47D0E1882046491BFFF724FC85
:103A600000285AD1A069FFF7B8F9064620682169F5
:103A7000FFF744FA0346002B4FD162690F20E9B2E9
:103A8000D4F81CE00D27D072481E78435673137388
:103A900053831F464FF6FF7C6345DFF884C018BF91
:103AA0003EF8103017F80CC007F1010722F80C306F
:103AB0004FF6FF7C18BF0130002B08BF63460D2F67
:103AC000E8D1634502D03EF810300BB941F0400117
:103AD0001170236801221A7120460021FFF7DBFCD8
:103AE000D8B9013DC2D120682169FFF707FA054620
:103AF00090B9606929462022FFF768F90B226069B6
:103B0000A169FFF74CF9A2696369D27A02F0180241
:103B10001A73236801221A71284607B0F0BD00BF4E
:103B2000FAF20100012970B504460D4624D98369D3
:103B3000994221D2A3699D4205D220462946FFF72A
:103B400060FB064608B9002070BD012814D0411C56
:103B500010D0204629460022FFF7E5FB68B96369CB
:103B60005A1C05D001336361637943F0010363712B
:103B70003546DFE7012070BD022070BDF0B585B08D
:103B8000019004A840F8041D00911646FFF734F98F
:103B9000041E2ADB174B53F824501F463DB1E8683A
:103BA000FEF71CFA08B9022022E000232B700199CD
:103BB00021B9019847F8240048B919E0002301F819
:103BC0000C3BE0B2FEF700FA0028ECD0F1E7012E42
:103BD0000DD16946002201A8FFF7D0F9044621461D
:103BE0000198FFF7F6FA204602E00B2000E00020E3
:103BF00005B0F0BD20C307202DE9F043D1B00191FD
:103C00001746054600287DD00023036001A906A8B9
:103C100002F01E02FFF7B2F9804600286CD103AB18
:103C20000C9306A80FAB01990D93FFF73FFD0B9C7A
:103C300010B9002C08BF062017F01C0F07F01F0654
:103C400036D048B1042802D106A8FFF765FE46F039
:103C500008060B9C30B15CE0E37A13F0110F57D1EA
:103C60007B0751D437072CD5FFF770F80023C4F831
:103C70000E000698E372E3610278678B032A08BF9F
:103C8000A28A6383A38208BF47EA02470123037124
:103C9000BFB13946D0F83090FFF744FF002838D143
:103CA0000698013F07614946FFF728F948B130E01F
:103CB00000282ED1E37AD80628D4B90701D5DA072F
:103CC00026D43307069B48BF46F020061A6BAE7118
:103CD000EA610022EA712C621978628B032904BF21
:103CE000A18A42EA01422A61E2692B60DB88EA602C
:103CF0000022AA60AA61AB8006984146FFF769FAE4
:103D0000404608E0092006E0082002E0042000E028
:103D100007208046F0E751B0BDE8F0832DE9F84F69
:103D20009A460023CAF8003004460F469046FFF733
:103D300033FA064630B120683146FFF74AFA30467A
:103D4000BDE8F88FE17929B12068FFF742FAE07900
:103D5000BDE8F88FA379D90706D420680721FFF7BB
:103D600038FA0720BDE8F88FE168A368CD1AA845A6
:103D700038BF4546002D00F08880A368C3F30802D1
:103D8000002A69D1206890F802B00BF1FF3B0BEAE2
:103D9000532B1BF0FF0B0CD10BB9206902E06169BA
:103DA000FFF72FFA012801D8022552E0421C4FD01C
:103DB0006061D4F8009061694846FFF717FA18B9B6
:103DC0000225E571484661E05FEA552800EB0B06E5
:103DD00022D099F8023008EB0B029A4288BFCBEB55
:103DE000030899F80100394632465FFA88F3FEF776
:103DF00033F968BBA3795B060BD5A369981B4045D3
:103E000007D207EB402004F124014FF40072FEF7C3
:103E1000C6FF4FEA48262DE0A269B2421BD0A37923
:103E200004F1240813F0400F0AD099F8010041462C
:103E30000123FEF72DF958B9A37923F04003A371AC
:103E400023684146587832460123FEF705F910B140
:103E50000125E57119E0A661A1683846C1F30801A2
:103E6000C1F50076B54238BF2E4621442431324692
:103E7000FEF795FFA36837443344A360DAF80030B7
:103E8000AD1B3344CAF8003074E720682946FFF7B9
:103E9000A0F92846BDE8F88F2DE9F84F9946002390
:103EA000C9F8003004460F461546FFF775F9064677
:103EB00030B120683146FFF78CF93046BDE8F88F05
:103EC000E17929B12068FFF784F9E079BDE8F88F3E
:103ED000A379990706D420680721FFF77AF907200C
:103EE000BDE8F88FA368DD4228BF0025C5B1A368EF
:103EF000C3F30802002A40F08580206890F802A0F1
:103F00000AF1FF3A0AEA532A1AF0FF0A22D113B93A
:103F1000216961B900E06169FFF76CFA014630B9C7
:103F2000A368E268934240F28A80E36087E0012957
:103F300001D1022502E04A1C08D101252068E57163
:103F40002946FFF746F92846BDE8F88F23696161E5
:103F500003B92161A3795B060DD5214651F8243BB5
:103F6000A26958780123FEF793F80028E5D1A379D8
:103F700023F04003A371D4F800B061695846FFF7FD
:103F800035F918B90225E5715846D9E75FEA552891
:103F900000EB0A0624D09BF8023008EB0A029A4292
:103FA00088BFCAEB03089BF80100394632465FFA26
:103FB00088F3FEF76DF80028BFD1A369991B41452E
:103FC0000BD204F1240007EB41214FF40072FEF7FD
:103FD000E6FEA37923F04003A3714FEA482623E0CD
:103FE000A369B3420DD0A268E3689A4209D29BF854
:103FF000010004F1240132460123FEF72DF80028C8
:104000009BD1A661A0683946C0F30800C0F50076D0
:10401000B54238BF2E46204424303246FEF7BFFE5C
:10402000A37943F04003A371A36837443344A360EA
:10403000D9F80030AD1B3344C9F8003056E7A379F6
:10404000206843F02003A3710021FFF7C2F800208D
:10405000BDE8F88F70B50446FFF79EF805460028C6
:1040600038D1A3799A0635D55B0612D5214651F889
:10407000243BA26958780123FEF70AF828B120688A
:104080000121FFF7A6F8012070BDA37923F04003BA
:10409000A3712068E169FEF731FF0546D0B9266AB1
:1040A000F37A43F02003F372E368F36123697383C7
:1040B0001B0CB382FEF74AFE7582C6F81600A37980
:1040C000012223F02003A37123681A712068FEF7F0
:1040D000D9FE054620682946FFF77BF8284670BDC3
:1040E00038B50546FFF7B6FF044648B92846FFF73E
:1040F00053F8044620B9286821462C60FFF769F878
:10410000204638BD70B504460D46FFF745F8064613
:1041100028B120683146FFF75CF8304670BDE17980
:1041200021B12068FFF755F8E07970BDE3689D4242
:1041300004D9A27912F0020F08BF1D460022A3681D
:10414000A2600DB9002558E02068867876026BB130
:10415000013B691EB1FBF6F1B3FBF6F2914205D3C8
:1041600072421340A360ED1A616913E0216981B9BD
:10417000FFF740F90128014626D0013018BF216120
:1041800007D101252068E5712946FFF722F8284666
:1041900070BD61610029D5D008E023689B69994210
:1041A00012D2A36861613344A360AD1BB54212D93A
:1041B000A37920689A0709D5FFF71CF9014648B191
:1041C0004B1CDED00129E8D80225DBE7FFF719F800
:1041D0000146F5E73546A3682B44A360C5F3080301
:1041E000002BAFD026683046FFF700F818B902253B
:1041F000E5713046C8E700EB5525A368C3F3080313
:10420000F3B1A26995421BD0A37904F1240613F0FF
:10421000400F0BD02368314658780123FDF738FF53
:104220000028AED1A37923F04003A371236831465F
:1042300058782A460123FDF70FFF0028A1D1A56178
:10424000A368E268934204D9E360A37943F02003B2
:10425000A37120680021FEF7BCFF002070BD2DE98E
:10426000F34702AB43F8040D14461046884600227B
:104270001946FEF783FE2468054600284CD1A7693D
:104280006369BA1E934202D8C8F8003044E094F83B
:104290000090B9F1010F10D1022706462046394699
:1042A000FEF7AFFF431C2BD001282BD000B90136FD
:1042B000A36901379F42F1D327E0616A03460246B2
:1042C000064652B9204601F1010AFEF717FED8B999
:1042D00004F1340351464FF40072B9F1020F05D1D5
:1042E000188800B901360233023A06E0186820F057
:1042F000704000B901360433043A013FE1D104E0D3
:10430000012502E0022500E005466379666143F07D
:1043100001036371C8F8006020462946FEF759FF83
:10432000284602B0BDE8F0872DE9F04F89B008AB10
:1043300043F80C0D18460F461546FEF75DFD0028A4
:10434000C0F20D82012F00F20C826B1E2B4040F058
:104350000882BF4A52F82040002C00F00482C6B206
:1043600023703046FDF75EFEC20700F1FE81430771
:1043700000F1FD813046012107AAFDF7A5FE08B135
:1043800001200EE2079B7F2BFAD9002F0CBF4FF0C4
:104390003F084FF00008C8EB030307936DB94FF4D3
:1043A000FA61B3FBF1F1AB4A32F81520914201D228
:1043B0000135F8E7A84A32F815505FEA552905D0CB
:1043C000B9F1810F28BF4FF0800901E04FF00109DA
:1043D000B3FBF9FA40F6F572924540F2CA814FF606
:1043E000F572924540F2D7814FEA8A0A0AF2072A0B
:1043F00000214FEA5A2A032502914FF0200CDDF8E4
:1044000008B00CEB0802D34493440392C8EB0902B2
:104410005A44934201D20E20C3E13046032106AA3A
:10442000CDF800C0FDF750FEDDF800C020B9069BB6
:10443000013BB3F5004F01D301230693069A032DE8
:1044400002F1FF335B44C2F1000203EA0203CBEB4B
:104450000303069304D103999C441944039100E09B
:104460009A44079B0299CCEB0302CAEB0202521A50
:10447000B2FBF9F2022D049205D1049940F6F572CF
:104480009142C8D913E0032D07D1049A4FF6F57372
:104490009A42C0D94FF00C0B10E0012D07D1B3F5B3
:1044A000803F34BF4FF0010B4FF0060B06E0B3F531
:1044B000803F34BF4FF0040B4FF0060B002F3ED16E
:1044C00004F13403184639464FF40072CDF800C0A9
:1044D0000193FEF77BFC0799FE2284F8F72108EB95
:1044E000010043F6C162B0FBF2F290084FF0010EFA
:1044F00040F03F0084F8F80184F8F92184F8F3E1F2
:1045000084F8F4E184F8F57184F8F6B1019B069221
:104510003F22C4F8FA214AF65522C4F8FE11A4F845
:104520003222194630463A467346FDF7B1FDDDF8B2
:1045300000C000287FF424AF4FF0F80B01E04FF0EB
:10454000F00B04F13407384600214FF40072CDF827
:1045500000C0FEF73BFC384640490B22FEF71FFC2B
:104560004FF40073A4F83F3084F841900123032DE9
:10457000DDF800C084F8443014BF4FF4007300230A
:10458000A4F84530079BA4F842C0B3F5803F34BF80
:10459000A4F8473063653F23A4F84C30FF2384F828
:1045A00049B0A4F84E30C4F85080FEF7CFFB032D7D
:1045B000069015D1022323660123A4F86430062354
:1045C000A4F86630802384F874302923C4F8770077
:1045D000C4F858A084F8763004F17B0020490CE040
:1045E000802384F858301F492923C4F85B00A4F8BD
:1045F0004AA084F85A3004F15F001322FEF7CFFB83
:104600004AF65523A4F83232304639464246012351
:10461000FDF73EFD00287FF4B3AE032D06D13046F2
:10462000394608F106020123FDF732FD3846002124
:104630004FF40072FEF7CAFB032D17D00A4B012D71
:1046400018BF6FF0FF0343EA0B030693636317E0A1
:1046500020C3072008F3010020F2010046F2010008
:1046600052F2010066F2010000FFFF006BF0FF0351
:10467000069363634FF0FF33A3636FF07043E3630C
:10468000039B39461A4603F1010B30460123FDF71F
:10469000FFFC014600287FF473AE38464FF40072E9
:1046A000FEF794FB01230693069B534513D20BF1AF
:1046B000010C304639465A460123CDF800C0FDF7BB
:1046C000E7FCDDF800C000287FF45AAE069BE34605
:1046D00001330693E8E70299DA46032D08BF4946FD
:1046E0000291304639465A4601230BF10109FDF784
:1046F000CFFC00287FF444AE029B53444B4501D0CD
:10470000CB46EEE7032D21D1274B049A636303F1D7
:10471000FF5303F500532033C4F81832531EC4F876
:104720001C320223C4F820324AF65523A4F8323250
:10473000394608F1010201233046FDF7A9FC304655
:10474000394608F107020123FDF7A2FC002130469B
:104750000A46FDF7B9FC003018BF012021E00B200C
:104760001FE013201DE00C201BE0032019E00A20AD
:1047700017E00AEB4A0A0AF1010A4FEA5A0A0AF15B
:10478000030A01250AF2FF1A20214FEA5A2A029150
:104790004FF0010C33E60AF1020A4FEA4A0A0225F9
:1047A000F0E709B0BDE8F08F525261412DE9F041C8
:1047B000069E0D461746984610B90120BDE8F081C7
:1047C0000029FAD00468002CF7D020683946424608
:1047D0003346A84708B16468F5E7BDE8F0810000FA
:1047E0002DE9F0410026ADF50C7D0F46804602967E
:1047F00002F02CFB4FF47A72002303F00BFE3146DB
:1048000004464FF4097203A804F05DFADFB103A86F
:104810001C491222FFF7F0F9064680B903A8069951
:10482000FFF770FC064630B903A841463A4602AB92
:10483000FFF732FB064603A8FFF752FC04E01248DC
:1048400004F000FE00E03E4602F000FB4FF47A72F6
:10485000002303F0DFFD0D4B001B1A689042029A03
:1048600088BF1860BB1A5C425C4134B9059B08489C
:10487000009331463B4604F0E5FD20460DF50C7DE6
:10488000BDE8F0811EF3010028F301002CC30720CE
:104890003CF301002E4B2DE9F7431C6804F58067BB
:1048A000254602AE0023DFF8B48046F8043DD8F870
:1048B000000031464EF6602201F0E1FB08B1019B99
:1048C00023B92046291BFFF78BFFE9E7D8F8000042
:1048D00001F07FFC1F4BDDF804801A880130904204
:1048E00088BF1880404605F086F80A2308F8003093
:1048F00000F10109019B002205EB090803F80920DA
:10490000B845019916D328467A1B04F0B8F9C7EBCD
:1049100008082046391BFFF763FFB8F1000F07D0E6
:10492000019BC8EB090120461944424604F0A7F94F
:10493000A04403E028464A4604F0A1F9064B31465C
:1049400018684FF0FF32002301F0C9FA4546A8E786
:1049500030C3072038C3072034C3072028C30720EB
:104960002DE9F0412F4E86B034688046002C55D199
:104970004FF48060059404F055F92B4D306040B938
:104980003068002835D004F055F9264B00221A6013
:104990002FE0042122460A2001F079FA234F042156
:1049A000386022460A2001F072FA3B682860002B2A
:1049B000E6D00028E4D00A24962004F033F90590CC
:1049C0000028DDD00022286805A9134601F087FAE7
:1049D000013CF1D1CDF80080019402940394144875
:1049E00014494FF4C072234601F038FC0028C7D0A8
:1049F00014E02B680A242BB90F4804F09BFD0DE04E
:104A0000013CF9D00022286805A9134601F037FBC4
:104A10000028F5D0059804F00DF9F1E706B0BDE8DF
:104A2000F08100BF30C3072034C3072028C307200C
:104A3000954801006FF3010076F3010013B50C46B1
:104A400002AA00210B4642F8041D006801F0DEFABC
:104A5000019B1BB1236843F001032360012002B0D6
:104A600010BD30B585B0044601A80D4600F062FBCC
:104A70009DF80630227903F01F039A421DD19DF85C
:104A80000530627903F03F039A4216D19DF8043055
:104A9000A27903F03F039A420FD12368002104AAB0
:104AA00042F8101D18686A460B4601F0AFFA009BE9
:104AB0001BB12B6843F001032B60012005B030BD12
:104AC00030B5224B87B01A78214C42F001021A709F
:104AD000002503A8029500F02DFB2B4600952068C9
:104AE0001C4902AAFFF762FE9DF80C3013F03F0349
:104AF0001BD100936068174902AAFFF757FE9DF883
:104B00000D3013F03F0310D10093A068114902AAA1
:104B1000FFF74CFE9DF80E3013F01F0305D10093F4
:104B2000E0680C4902AAFFF741FE00230A4A0093FD
:104B300010680A4902AAFFF739FE029B1BB1084B15
:104B40004FF080521A6007B030BD00BF00400240F5
:104B50003CC307203D4A01004CC30720634A0100C3
:104B600004ED00E070B5064602F070F9841941F1D9
:104B7000000502F06BF9A94208BFA042F9D370BD4D
:104B800008B501F05BFE831E5842584108BD10B5C0
:104B90000446FFF7F5FF20B12046BDE8104001F0C4
:104BA00021BD4FF47A706043BDE81040FFF7DABFD3
:104BB000012101FA00F0064B1A6822F0E06222F0AF
:104BC000FF021A601A6842F0807202431A6070474E
:104BD0000040034007B500230A4A0193526802A926
:104BE000C2F30B1221F8062D074A106801AA01F042
:104BF0000DFA019B1BB1054B4FF080521A6003B0B8
:104C00005DF804FB0040034050C3072004ED00E0C2
:104C100010B502F089FA0121C4080C2002F0B8F89E
:104C20000C20032102F0CCF8114A4FF4001313605A
:104C300002231049B4FBF3F0884204D8116841EA1A
:104C40000323136003E00233B3F5807FF1D1012029
:104C500001F0B6F9084B002218600221012001F092
:104C600016F9064B4FF480021860054B1A6010BD10
:104C7000004003403F5DC60054C3072050C30720D7
:104C800000E100E0F7B507284FF000040546ADF855
:104C900006402AD801F0D2FD0228164E19D1164F2F
:104CA000214623464FF0FF32386801F0E8F92846E4
:104CB000FFF77EFF0DF10601234630684FF0FF320B
:104CC00001F0DDF9386821462246234601F007F954
:104CD0000BE02846FFF76CFF002230680DF106015B
:104CE000134601F0CCF90028F6D0BDF8060003B059
:104CF000F0BD00BF50C3072054C30720C36930B5BF
:104D00005C0703D500F1300221230BE05A0503D5DF
:104D100000F14002412305E013F480230DD000F19F
:104D20005002812301F1100451F8045BA14242F8C2
:104D3000045BF9D14360012030BD184630BD00004E
:104D40007FB593680D460343D907044616460AD536
:104D5000154B02F12001002253F82500134601F003
:104D600055F90423736040F2026323405BB10F4B9B
:104D7000694653F82500002201F002FA18B13046C6
:104D80006946FFF7BBFFA20604D5094B204653F83E
:104D900035309847230705D5054B204603EBC5055D
:104DA0006B68984704B070BD58C3072060C30720E4
:104DB00068C307200A4B10B5D3F8C440A20404D539
:104DC000084A0021D068FFF7BBFF630406D5BDE8A1
:104DD0001040054A0121D068FFF7B2BF10BD00BFE7
:104DE00000C00F40004004400080044070B50546FC
:104DF0000E4614467CB12B686BB12268134208D072
:104E00006368984722682B6823EA02032B602368B3
:104E10003360A468EEE770BDF8B5012787400C4603
:104E200015461E4610D079B10C2003F0FBFE58B198
:104E300044602B680760836033684FF400121F439F
:104E4000024B286037601A60F8BD00BF00E100E047
:104E50001FB5184C6846636817490093A36801930F
:104E6000636A0293A36A0393144B1A68FFF7BEFFA9
:104E7000134B01A81A681049FFF7B8FF114B02A89D
:104E80001A681149FFF7B2FF104B03A81A680E49C0
:104E9000FFF7ACFF009B0BB9019B13B14FF0FF3341
:104EA000E360029B0BB9039B13B14FF0FF33E36246
:104EB00004B010BD808002408C80024080C3072077
:104EC00084C3072078C30720AC8002407CC307203E
:104ED00010B50029064B1146064A074C18BF1A4662
:104EE000064B08BF2346BDE81040FFF795BF00BF43
:104EF00084C3072080C30720908002409480024032
:104F000070B5184B04465D69174B1A201A6C0E4693
:104F100022F470021A641A6C032142F420021A640B
:104F20009A6E05F4406542F440629A661A6822F46B
:104F300070021A601A6842F420021A6001F040FF01
:104F400002F0F2F8B5F5406F014606D12046324630
:104F5000C908BDE8704000F0B7BC012363710020B0
:104F600070BD00BF00C0092000C0024010B5034959
:104F7000044600F07BFC204610BD00BF00000A4044
:104F800038B5074C236833B91C20FBF771F9054687
:104F9000FFF7ECFF25602068BDE8384000F06CBDED
:104FA000A8C1072070B51D4D04462B680170002A6A
:104FB00014BF16466426CBB902F0B6F8B0FBF6F083
:104FC00028600121062001F0E3FE0620012101F006
:104FD000F7FE134B5A6942F002025A612A689A613D
:104FE00009225A601A6F22F00F021A6721780322F1
:104FF000480082400B4B09311D6925EA02021A6103
:10500000012202FA00F08A401D6928431861A3F5C5
:10501000A033D86C0243DA64204670BD88C30720F1
:105020000080014000C0024038B505460C460846E5
:105030001A4903F09FF900282ED1194B186802F085
:1050400085FF0146204602F0D9FF144903F08AF893
:1050500003F0C0F92A78052A1ED8DFE802F003061B
:10506000090C0F120F49C8610DE00E4908620AE0F1
:105070000C49486207E00B49086404E009494864A8
:1050800001E0084988640120013200FA02F2054B70
:10509000196D0A431A6538BD002038BD0000C842AA
:1050A00088C307200080014008B5044B1B6898475F
:1050B000034B1A7A42F001021A7208BD8CC3072012
:1050C00000000B4030B5064B85B004AD04460FCB55
:1050D00005E90F0005EB840454F8100C05B030BD51
:1050E000DCF3010073B50E460546FFF7EBFF0F4BEF
:1050F0000446186802AB1D4400900190012115F888
:10510000080C01F045FE15F8040C012101F058FED1
:1051100000230122A3606260236702F005F8044BBC
:10512000B0FBF3F04643E66002B070BDECF3010063
:1051300040420F00F0B5134B87B0074693E80700D5
:105140008DE8070003AD93E8070085E807006C468B
:105150001E46684629460C2203F082FD40B196E8BF
:10516000070084E8070096E8070085E80700F0E7F5
:105170006C4603CC386020687960B860384607B068
:10518000F0BD00BF14400240184B00221A72027892
:10519000C2F3050283F820204278C2F3050283F8A7
:1051A00024208278C2F3040283F82820C278C2F354
:1051B000020283F830200279C2F3040283F82C2023
:1051C0004279C2F3030283F83820C279817902F070
:1051D0000F0241EA02229A87427A017A02F00F0214
:1051E00041EA02229A8601221A7270470040024068
:1051F0001FB50920012101F0CBFD304B01221A72AD
:1052000001A8FFF797FFBDF80A3003F62603C3F3A2
:105210000B030F2B1ED89DF8053003F03F033B2BEB
:1052200018DC9DF8043003F03F033B2B12DC9DF8A3
:10523000063003F01F03172B0CDCBDF80C30C3F352
:105240000B03B3F5B77F05DA9DF8093003F00F03C0
:105250000C2B2FDD9DF80830012262F304038DF83A
:1052600008309DF8093001A862F303038DF8093076
:10527000BDF80A3040F2DA7262F30B03ADF80A307F
:105280009DF807306FF302038DF807309DF8063064
:105290006FF304038DF806309DF805306FF30503B6
:1052A0008DF805309DF804306FF305038DF8043058
:1052B000FFF76AFF05B05DF804FB00BF0040024045
:1052C00013B537220C4601A80021FFF76BFE042C12
:1052D00000F2B480DFE804F0053E7B03B50004244F
:1052E00089E00324584901A8FFF79EFE6420FFF7D8
:1052F0004EFC002101A8FFF797FE6420FFF747FC52
:10530000013CEFD14FF4C870FFF741FC03244E4934
:1053100001A8FFF789FE4FF4FA70FFF738FC00216F
:1053200001A8FFF781FEC820FFF731FC013CEED158
:105330000324454901A8FFF777FE6420FFF727FC07
:10534000002101A8FFF770FE6420FFF720FC013C5C
:10535000EFD176E03C4901A8FFF766FEC820FFF7D1
:1053600016FC002101A8FFF75FFE6420FFF70FFC89
:10537000354901A8FFF758FEC820FFF708FC0021B7
:1053800001A8FFF751FE6420FFF701FC4FF4FA700B
:10539000FFF7FDFB2C4901A8FFF746FEC820FFF7E9
:1053A000F6FB002101A8FFF73FFE6420FFF7EFFBAB
:1053B000254901A8FFF738FEC820FFF7E8FB01A840
:1053C0000021FFF731FE6420FFF7E1FB39E0042400
:1053D0001D4901A8FFF728FE4FF4FA60FFF7D7FB3D
:1053E000002101A8FFF720FE4FF4FA70FFF7CFFB72
:1053F000013CEDD125E0144901A8FFF715FE64201A
:10540000FFF7C5FB002101A8FFF70EFE6420FFF7A0
:10541000BEFB0D4901A8FFF707FE6420FFF7B7FBAD
:10542000002101A8FFF700FE6420FFF7B0FB4FF456
:105430009660FFF7ACFB013CDDD102E0034804F0CD
:1054400079F802B010BD00BF00005C42F0F301002B
:1054500008B51D20012101F09BFC034B01221A63BA
:105460001A6BD207FCD508BD0040005073B54FF051
:10547000FF33B1F5805F01934AD2284C2369DB07E3
:1054800048D4274B1B69DE0744D4264BDD686D07E3
:1054900001D59B68F9E7244B03259D601D61234DD1
:1054A00003F59073256022B101AE5E6041F00046C5
:1054B00002E0586041F00846DE600023A36041F23C
:1054C00006032361164B1AB1186041F0806101E0B8
:1054D00001AA1A600022D9605D609A604FF40862E8
:1054E0001A61226942F0010222611A6942F0010246
:1054F0001A610C4B5A6A42F003025A62E068C0F328
:105500000B000028FAD15A6A22F003025A6202E024
:10551000012000E0022002B070BD00BF2041005019
:1055200000410050000003400040005008000340CC
:1055300010B50A4C23681BB9012000F041FD206022
:1055400001F07CF9022808D1002120684FF0FF32D9
:105550000B46BDE8104000F092BD10BD90C307207F
:1055600010B501F06BF9022808D1BDE81040044BDA
:10557000002118680A460B4600F0B1BC10BD00BF00
:1055800090C3072010B5034B0446036000F0AAF84F
:10559000204610BDB0F5010010B5034B0446036072
:1055A000FFF7F0FF204610BD70F4010010B504466F
:1055B000FFF7E8FF2046FAF75DFE204610BD10B564
:1055C0000446FFF7E9FF2046FAF754FE204610BDD7
:1055D00010B50449044600F03BFB034B2046236012
:1055E00010BD00BF00C0004070F4010038B5074C8A
:1055F000236833B92C20FAF73BFE0546FFF7E8FF96
:1056000025602068BDE8384000F0C8BAACC107206A
:1056100010B5034B04460360FFF7B4FF204610BDEE
:10562000E0F4010010B50446FFF7F2FF2046FAF758
:1056300021FE204610BD000010B50449044600F0CC
:1056400007FB034B2046236010BD00BF00800940CC
:10565000E0F4010038B5074C236833B92C20FAF781
:1056600007FE0546FFF7E8FF25602068BDE83840E3
:1056700000F094BA94C3072010B5034B04460360AE
:10568000FFF780FF204610BD50F5010010B504461D
:10569000FFF7F2FF2046FAF7EDFD204610BD0000AF
:1056A00010B50449044600F0D3FA034B20462360AA
:1056B00010BD00BF00C0094050F5010038B5074CCF
:1056C000236833B92C20FAF7D3FD0546FFF7E8FF2E
:1056D00025602068BDE8384000F060BA98C3072014
:1056E00001207047044B10B504460360406808B1C0
:1056F00003F0A0FA204610BD70F5010010B5044675
:10570000FFF7F0FF2046FAF7B5FD204610BD000078
:10571000064B10B503600023044643600381037405
:10572000012000F04DFCE060204610BD70F5010046
:105730002DE9F84344790646894690461D46089F60
:10574000002C62D1002B62D001F078F802282CD016
:1057500033682022B475B56186F8149086F81580F8
:1057600037611A6001F072FB4FF47A72002302F085
:1057700051FE10F57A7441F100050021F0680A46E7
:105780000B4600F07CFC50B901F060FB4FF47A72DC
:10579000002302F03FFE8D4208BF8442EDD2B47D6B
:1057A000D4F1010438BF002432E0B06821464FF440
:1057B0007A72234600F063FC28B321462246234632
:1057C000F06800F05CFC33682022B47586F8149011
:1057D00086F815803761B561F0681A6021464FF48C
:1057E0007A72234600F04BFC28B1B47DD4F1010459
:1057F00038BF002400E004460021B0680A460B468A
:1058000000F06DFB04E0044602E0002400E01C46CA
:105810002046BDE8F88341F00101FFF789BF1FB5BD
:10582000002404AB03F8014D01240094FFF7F3FFBB
:105830009DF90F0004B010BD21F00101FFF778BF02
:105840001FB504AC04F8013D012300932346FFF784
:10585000F3FF04B010BD1FB5002204AB03F8012D07
:105860000092FFF7D8FF05B05DF804FB38B50025BE
:10587000044601604571012000F0A2FB2946A060AA
:105880000322012000F003FB2A462B46E060294654
:1058900000F0F5FB2368094A934201D10A2309E08D
:1058A000074A934201D10B2304E0064A93420CBFFE
:1058B0000C2363232371204638BD00BF00C0014084
:1058C00000C0054000000A4090F9043070B50B2B71
:1058D00004460E46154605D00C2B05D00A2B33D1B5
:1058E000072002E0132000E01A20012101F050FA05
:1058F0002368B5F57A7F4FF06C029A619ABF4FF436
:105900007A725543114D2821B6FBF5F56D086943B0
:105910006422B1FBF2F119613C214D43B5FBF2F277
:105920005A610022DA601A625A629A6240221A6050
:105930002379012059B203F01F0300FA03F3044A4C
:10594000490942F8213070BD002070BDA0860100D9
:1059500000E100E0036830B559680246282945D0C7
:1059600009D8102924D018292AD0082977D1027DF6
:1059700002F0FE0237E0402954D00AD838296ED10F
:10598000017D5B6811F0010F93750CBF02200120AF
:1059900030BD50294ED0582961D181699B680B7068
:1059A000036820219961102119600821996152E052
:1059B000027D42F001029A6008229A61002030BD07
:1059C000146920209861082164B99861102018603A
:1059D00099611968C906FCD4137DDD074CBF01200D
:1059E000022030BD527D9A609961E7E7007D10F09A
:1059F000010001D020222CE014694CB920219961CA
:105A000010211960082199611968CC06FCD4E3E7DC
:105A10009169013C11F9015B9D609161146108225B
:105A20009A6130BD02692021012A99614FF0040278
:105A30000FD80CE09B68816904220B7083690133E5
:105A400083610369013B012B0361036801D19A6102
:105A5000B2E71A60B0E71968C806FCD4BCE7596819
:105A600091752021996110211960082199611968A7
:105A7000C906FCD4B0E7000013B50446FFF76AFF7F
:105A800068B1002102AA0B4642F8041DE06800F04C
:105A9000BDFA019B1BB1034B4FF080521A6002B05C
:105AA00010BD00BF04ED00E037B5044615468DF883
:105AB000071000F0C3FE022808D09DF80720636994
:105AC0001A706269137D5906FCD517E0E0690DF183
:105AD00007012A46002300F002FA80B163691B7DAA
